:020000040800F2
:10000000801400203D0200087F240008012300081E
:100010007D24000811090008412A000800000000A2
:100020000000000000000000000000008324000821
:10003000D50900080000000081240008852400087C
:10004000570200085702000857020008570200082C
:100050005702000857020008C90A000857020008A2
:10006000570200085702000857020008570200080C
:1000700057020008570200085702000857020008FC
:1000800057020008570200085702000857020008EC
:1000900057020008570200085702000857020008DC
:1000A00057020008570200085702000857020008CC
:1000B00057020008570200085702000857020008BC
:1000C00057020008570200085702000857020008AC
:1000D0005702000857020008352A00085702000896
:1000E000570200085702000857020008570200088C
:1000F000570200085702000857020008570200087C
:10010000570200085702000857020008570200086B
:10011000570200085702000857020008570200085B
:100120002509000857020008570200085702000876
:10013000570200085702000857020008570200083B
:10014000570200085702000857020008570200082B
:10015000570200085702000857020008570200081B
:10016000570200085702000857020008570200080B
:10017000570200085702000857020008000000005C
:10018000570200085702000800F002F800F047F894
:100190000AA090E8000C82448344AAF10107DA45E2
:1001A00001D100F03CF8AFF2090EBAE80F0013F0ED
:1001B000010F18BFFB1A43F001031847382A00004B
:1001C000582A0000103A24BF78C878C1FAD85207DC
:1001D00024BF30C830C144BF04680C6070470000C1
:1001E0000023002400250026103A28BF78C1FBD840
:1001F000520728BF30C148BF0B607047642900F028
:100200000581752900F00281732900F068820020C1
:1002100070471FB502F088FC1FBD10B510BD00F07F
:1002200062FA1146FFF7F5FF02F01CFC00F080FABD
:1002300003B4FFF7F2FF03BC00F088FA09488047D7
:1002400009480047FEE7FEE7FEE7FEE7FEE7FEE7B8
:10025000FEE7FEE7FEE7FEE704480549054A064BD0
:10026000704700000125000889010008800E002069
:1002700080140020801000208010002053EA020C1F
:1002800000F069802DE9F04B4FF00006002B1FBFF6
:10029000B3FA83F503FA05F424FA05F65E4012BFBB
:1002A0001643B2FA82F502FA05F4C5F120051EBF25
:1002B00022FA05FC44EA0C04203556EA044C4FEAC5
:1002C000144418BF641C4FF000084FF0000990421E
:1002D00071EB030C39D3002919BFB1FA81F701FA88
:1002E00007F6B0FA80F700FA07F6C7F120071EBF3D
:1002F00020FA07FC46EA0C062037B6FBF4FCA7EB15
:100300000507103F07F01F0BCBF120060CFA0BFB83
:100310002CFA06F644BFB3460026202FA4BF5E4643
:100320004FF0000B5BEA060C08BF4FF0010B19EB16
:100330000B09ABFB027C48EB0608C01B06FB02CC9A
:100340000BFB03CC71EB0C01C1E70B4602464146A7
:100350004846BDE8F08B13B54FF000004FF00001A8
:10036000AFF30080BDE81C40704700000FB41CB51F
:10037000074B06AA7B4469460090059800F085F972
:100380000020694600F094F91CBC5DF814FB0000E5
:100390003903000009684A0501D540B27047C90514
:1003A000FCD500B2704709684A0501D5C0B2704754
:1003B000C905FCD580B2704770B50C460546012AC8
:1003C00005D02878800600D5EA69002302E00123E1
:1003D00005E05B1C934202D2E05C0028F9D1A869D9
:1003E000E618C01AA861286A184428622846AFF3A4
:1003F000008004E0D5E9012114F8010B9047B442D4
:10040000F8D32846AFF3008070BD00002DE9F0411D
:100410000646002410687529314616A510D0FFF74E
:10042000B9FF002802DA404213A507E031688A07C5
:1004300001D512A502E0490704D511A5012401E068
:10044000FFF7B1FF00210A2206F1240709E0B0FB03
:10045000F2FCB0FBF2F302FB1C003030785418467B
:10046000491C0028F3D123462A463046BDE8F04116
:1004700000F0ADB8000000002D0000002B000000CF
:10048000200000002DE9F0410F46054600202862BB
:100490002846E968884770B3252805D0D5E90121A9
:1004A0009047286A401CF2E7E968284600268847FA
:1004B0006C2804460AD0682C08D04C2C35D06A2C05
:1004C00031D0742C31D07A2C2FD016E0E968064652
:1004D00028468847B042044608D16C2E23D04FF4FA
:1004E00080662846E9688847044606E06C2E03D0FB
:1004F0004FF4807601E01EE04026E4B1A4F1410013
:10050000192802D8203446F400663A462146284687
:100510002E60FFF773FE60B1012808D0FF1D27F0A1
:1005200007070837B4E78026DBE70026D9E73F1D39
:10053000AEE72046B2E7286ABDE8F08110B5431C5B
:1005400002E010F8011B71B18107FAD14FF00132BE
:1005500002C88C1A8C4314EAC211F9D0C01A0A06D8
:1005600003D0C01E10BDC01A10BD0A0401D0801EE9
:1005700010BD0902FCD0401E10BD4FF0000200B5B6
:10058000134694469646203922BFA0E80C50A0E8B6
:100590000C50B1F12001BFF4F7AF090728BFA0E864
:1005A0000C5048BF0CC05DF804EB890028BF40F830
:1005B000042B08BF704748BF20F8022B11F0804F72
:1005C00018BF00F8012B70477047704770472DE93E
:1005D000F0470D4699469246044600F1240801680A
:1005E000880604D5E06921F01001216000E00120B7
:1005F000A84201DD471B00E00027A1697A1902EB40
:100600000900081AA0612078C00602D42046AFF382
:100610000080002608E0D4E901211AF8060090477E
:10062000206A401C761C20624E45F4DB2078C00610
:100630000AD52046AFF3008006E0D4E9012130203E
:100640009047206A401C2062381EA7F10107F4DCA5
:1006500007E0D4E9012118F805009047206A401C02
:100660002062281EA5F10105F3DC2046AFF30080CF
:100670002078000602D50220BDE8F0870120FBE7C4
:1006800001694A1C02610878704700B58FB0CDE956
:1006900001310021059105497944CDE90310114646
:1006A0006846FFF7EFFE0FB000BD0000E5FFFFFF5B
:1006B0000A6802F8010B0A60704710B5436913B16C
:1006C000AFF3008001E0FFF777FE012010BD127844
:1006D00000F124010A7000224A700122EDE711683E
:1006E0004FF0FF32E9E7754600F02CF8AE46050002
:1006F0006946534620F00700854618B020B5FFF73D
:10070000ABFDBDE820404FF000064FF000074FF072
:1007100000084FF0000B21F00701AC46ACE8C0091F
:10072000ACE8C009ACE8C009ACE8C0098D46704728
:1007300010B50446AFF300802046BDE81040FFF737
:1007400077BD000000487047200E002001491820A6
:10075000ABBEFEE726000200704710B50146806B75
:10076000026C12F0500F05D0026CD20626D500F0B4
:1007700064FA10BD016C41F40071016401688A687B
:1007800012F0405F17D1027EAAB9CA6A12F4700F44
:1007900002D08A6852050ED44A6822F020024A60CC
:1007A000016C21F480710164016CC90403D4016CF3
:1007B00041F00101016400F033FA10BD806BC26C9E
:1007C000BDE810400846104710B5806B4021016419
:1007D000416C41F00401416400F02FFA10BD10B5E6
:1007E000806B00F029FA10BD464910B54A6822F422
:1007F00040324A604A6843681A434A6001684A685E
:1008000022F480724A6001684A68036942EA03225E
:100810004A6001684A6822F040724A6001684A688A
:1008200083681A434A6001688A6822F400628A6019
:1008300001688A68C3681A438A60816A6FF07062CF
:10084000D14201688A6822F070628A6001688A6811
:100850000CD0836A1A438A6001688A6822F0405289
:100860008A6001688A68C36A1A4301E022F0405234
:100870008A6001688A6822F002028A6001688A68D8
:10088000037E42EA43028A6090F820100029016842
:100890004A680FD042F400624A6001684A6822F454
:1008A00060424A6001684A68174C436A04EB43336C
:1008B0001A4301E022F400624A600168CA6A22F425
:1008C0007002CA620168CA6A838B104C04EB03533E
:1008D0001A43CA6201688A6822F400728A60016859
:1008E0008A6890F8303042EA43228A6001688A6858
:1008F00022F480628A6001688A68406942EA802046
:10090000886010BD0023014000E0FFFF0000F0FF01
:10091000FEE70022134601E08354521C8A42FBDBAF
:1009200070470000014800F017BB0000C00D002018
:1009300001681823CAB2103AB2FBF3F2054B6FF309
:100940000901032A9B5CC36500D9091D816508461E
:1009500070470000802B000810B5014600208B690D
:100960008A6A4FF0C07453B1B3F5005F15D072B10D
:10097000012A0CD0022A0AD0032A09D104E01AB1B4
:10098000012A06D0022A03D1C96AC90100D5012073
:1009900010BDC96AA142FAD010BD002AF7D0012AC1
:1009A000F2D0022AF3D0032AF3D010BD30B5046888
:1009B000256825F480252560046863608368402BE2
:1009C000036803D099600068C26030BD9A60006817
:1009D000C16030BD7047000070B52A48FFF7AEFD1A
:1009E00082B24FF0FF3423462649274801F037FCF6
:1009F0004FF47A76304600F021FC22482C30FFF785
:100A00009DFD204982B223462C311F4801F027FC6E
:100A100042F21075284600F011FC1A483530FFF7F5
:100A20008DFD184982B223463531174801F017FC75
:100A3000304600F003FC15A318A21CA12148FFF7C3
:100A400095FC2048FFF77AFD82B223461D490E48E7
:100A500001F005FC284600F0F1FB64211948FFF77E
:100A600058FF08484330FFF769FD064982B2234624
:100A70004331054801F0F3FB7000BDE8704000F021
:100A8000DDBB0000322B0008B000002064676E3828
:100A90003271393240363237000000004F6F7265D4
:100AA000646F6F2D464545443832000041542B4356
:100AB000574A41503D222573222C222573220D0ACC
:100AC00000000000F80C0020012000F00FBC72B6FE
:100AD000FEE7000078B50024009490F83C20012A3D
:100AE00019D0012280F83C200A6807230568092AEA
:100AF00013D9EE680A3A02EB420293409E43EE603D
:100B00000B788A680A3B03EB43039A400368DD686D
:100B10002A43DA6010E0022078BD2E6902EB42021F
:100B200093409E432E610B788A6803EB43039A40FF
:100B300003681D692A431A614A681F23072A13D2D2
:100B400005686E6B521E02EB820293409E436E63F9
:100B50000B790A885B1E92B203EB83039A40036809
:100B60005D6B2A435A6327E005680D2A12D22E6B6B
:100B7000D21F02EB820293409E432E630B790A88B8
:100B8000DB1F92B203EB83039A4003681D6B2A4379
:100B90001A6311E0EE6A0D3A02EB820293409E4323
:100BA000EE620B790A880D3B92B203EB83039A4005
:100BB0000368DD6A2A43DA62164B0568144A9D42CF
:100BC00006D10D68122D03D1556845F48005556096
:100BD00005689D4218D10B68102B01D0112B13D141
:100BE000536843F400035360096810290CD10A4983
:100BF0000A4A0968B1FBF2F101EB8101490000E00A
:100C0000491E00910029FBD180F83C40002078BDAE
:100C100000230140002001401C00002040420F0042
:100C200000680349884202D10249012048607047A8
:100C300000200140000000207047704770B504009C
:100C40004FF0000503D0206C002610B107E0012012
:100C500070BD204600F01CF8666484F83C60206C8F
:100C6000C00610D4206C20F4885040F002002064AC
:100C70002046FFF7B9FD6664206C20F0020040F0CA
:100C80000100206400E0012584F83C60284670BD26
:100C900070B586B0064614216846FFF76EFC2449FD
:100CA0003068884242D123480025016841F48071B0
:100CB000016000681F4900F48070143905900868CD
:100CC00040F001000860086800F001000590086825
:100CD00040F0040008600868032400F00400059058
:100CE00002208DE831006946134800F00BFB3020EC
:100CF0008DE831006946114800F004FB114C1048A2
:100D0000C4E900050015A560C4E903504000606116
:100D10008000A0614011C4E907052046656200F02B
:100D2000EBF908B1FFF7D3FEB463A66306B070BD5C
:100D30000020014044380240000002400008024008
:100D400010640240C00D0020F8B50E460021044694
:100D5000009190F83C0013460A46012807D0012074
:100D600084F83C0020688568ED0702D011E002207D
:100D7000F8BD856845F0010585604048404D006834
:100D8000B0FBF5F000EB400000E0401E00900028B2
:100D9000FBD120688568ED0503D5856825F480754D
:100DA000856020688568ED075DD0226C40F20165A2
:100DB000AA4342F4807222644068400505D5206C45
:100DC00020F4005040F480502064206CC00404D50E
:100DD000606C20F00600606400E0616484F83C1000
:100DE000A16B2948274DC863A16B28480864A16BF3
:100DF0002748C86421686FF02200086020684168B5
:100E000041F0806141602068816841F480718160B7
:100E1000216832464C31A06B00F0D8F90246686870
:100E20001C49C006206806D0884224D1816811F090
:100E3000405F13D01FE08842F8D0174B984203D18F
:100E4000D1F80433DB06F1D0144B984213D1D1F81A
:100E5000041301F01F011029E8D30CE0816841F070
:100E60008041816007E0206C40F010002064606CDD
:100E700040F0010060641046F8BD00001C00002036
:100E800040420F00002301405B070008DF07000815
:100E9000C907000800200140002101400022014054
:100EA0002DE9F0410446876D00F024FB064694F8D6
:100EB00035000025022806D08020606584F8345073
:100EC0000120BDE8F0812068016821F01601016071
:100ED0002068416921F080014161206C08B9A06C53
:100EE00020B12068016821F00801016020680168D4
:100EF00021F0010101600CE000F0FCFA801B0528E4
:100F000007D920206065032084F8350084F8345028
:100F1000D7E720680068C007EED194F85C103F2046
:100F20008840B860012084F8350084F834500020EF
:100F3000C7E790F83510022903D0802141650120D0
:100F40007047052180F835100068016821F0010123
:100F500001600020704700002DE9F84304464FF07F
:100F60000009CDF8009063484FF41651A56D006854
:100F7000B0FBF1F72E6894F85C10082000FA01F13C
:100F800031420FD021680A6852070BD50A6822F057
:100F900004020A6094F85C108840A860606D40F01C
:100FA0000100606594F85C104FF0010808FA01F048
:100FB000304208D021684969090604D5A860606DEF
:100FC00040F00200606594F85C10042088403042D4
:100FD00008D021680968890704D5A860606D40F0D1
:100FE0000400606594F85C1010208840304218D0EE
:100FF00021680968090714D5A860206801684903B9
:1010000004D50068000308D5A16C07E00168C90594
:1010100003D4016821F008010160216C09B1204668
:10102000884794F85C1020208840304231D02168F5
:101030000968C9062DD5A86094F8350005282068F0
:10104000016806D0490347D5006800031DD4616CD0
:101050001CE021F0160101602068416921F0800147
:101060004161206C08B9A06C20B12068016821F0B2
:101070000801016094F85C103F208840A86084F863
:10108000358084F83490216D1FE0E16B09B1204672
:101090008847606D00282BD0606DC00714D00520F4
:1010A00084F835002068016821F001010160009892
:1010B000401C0090B84203D820680068C007F6D1F1
:1010C00084F8358084F83490E16C002910D001B0A8
:1010D0002046BDE8F04308470168C905D5D401683A
:1010E00021F01001016084F8358084F83490CCE759
:1010F000BDE8F8831C0000202DE9F041044600F013
:10110000F9F906465CB1022084F83500002584F820
:1011100034502068016821F0010101600DE00120D8
:10112000BDE8F08100F0E6F9801B052805D92020F4
:101130006065032084F83500F2E720680068C00786
:10114000F0D12268116820480140D4E90103184316
:10115000D4E903363343184363691843A36918433A
:10116000E3691843236A18430843616A042903D1D9
:10117000D4E90B1319430843106020684069666A7C
:1011800020F0070130460E43012704280CD1A06A45
:101190000643E06A40B12046FFF7DEFB20B1402065
:1011A000606584F83570BAE7206846612046FFF72D
:1011B000BFFB94F85C203F2191408160656584F815
:1011C00035700020ACE700003F8010F02DE9F041C1
:1011D0000446866D90F83400002501280DD00120CA
:1011E00084F8340094F835700020012F07D084F87B
:1011F000340002252846BDE8F0810220FBE70227E3
:1012000084F8357060652046FFF7D0FB94F85C10D9
:101210003F208840B0602068016841F016010160FD
:10122000206C20B12068016841F00801016020684D
:10123000016841F001010160DCE7000070B504467F
:1012400000F058F90546601C02D0044800780444B8
:1012500000F050F9401BA042FAD370BD10000020EE
:1012600070B501282CD1174C4FF0FF362068401C78
:10127000206001280DD114A52846FFF75FF982B23E
:1012800033462946144800F0EAFF1348903800F02E
:101290000DFD2068022813D110A52846FFF74EF94E
:1012A00082B2334629460C4800F0D9FF0A489038EC
:1012B00000F038FD08490020903909684862206034
:1012C00070BD0000000000200A53595354454D20C2
:1012D000424547494E0D0A00F80000200A53595371
:1012E00054454D2053544F500D0A0000044910B589
:1012F0000A68024202D00860FFF7B2FF10BD00008A
:10130000143C01402DE9F84FDFF8BCA10022012573
:1013100003264FF00F090AF1040BAAF1040E00BFD7
:101320000B6805FA02F42340A34270D10F7907F04D
:101330000307012F01D0022F16D187684FEA420818
:1013400006FA08FC27EA0C07D1F80CC00CFA08FCD6
:101350004CEA070CC0F808C04768A7430C79C4F3EF
:10136000001494403C4344600C79E443A4070AD041
:10137000C4684FEA420C06FA0CF7BC438F6807FAC0
:101380000CF72743C7600C7904F00304022C12D138
:10139000D40800EB840CDCF820405707FF0E09FA54
:1013A00007F824EA0804D1F8108008FA07F848EA98
:1013B0000408CCF8208004684FEA420C06FA0CF7C7
:1013C000BC430F7907F0030707FA0CF727430760C0
:1013D0004C6814F4403F70D03C4C276847F4804779
:1013E0002760246822F0030704F480440094384CFA
:1013F00007EB040CDCF8084897074FEA177809FA5E
:1014000008F7BC43334FB84202D1002724E054E030
:10141000314FB84201D101271EE0304FB84201D10F
:10142000022719E02E4FB84201D1032714E02D4FB7
:10143000B84201D104270FE02B4FB84201D1052754
:101440000AE02A4FB84201D1062705E0284FB842EA
:1014500001D1072700E0082707FA08F72743CCF84F
:101460000878DAF800405746D1F804C09C435FEA98
:10147000CC2C00D51C433C60DBF800405F46D1F823
:1014800004C09C435FEA8C2C00D51C433C60DEF812
:1014900000407746D1F804C09C435FEA8C3C00D5FD
:1014A0001C433C60084F083F3C68D1F804C09C4393
:1014B0005FEACC3C00D51C433C60521C102AFFF470
:1014C0002FAFBDE8F88F0000083C014044380240CF
:1014D00000300140000002400004024000080240C9
:1014E000000C0240001002400014024000180240AC
:1014F000001C024001488068704700001000002076
:101500000248816802781144816070471000002011
:101510000B4810B5016841F400710160016841F4A5
:1015200080610160016841F480710160032000F076
:101530006FF80F2000F006F800F024F8002010BD2E
:10154000003C024070B50D4D04464FF47A71287886
:10155000B1FBF0F00A490968B1FBF0F000F00AFBBA
:1015600048B9102C07D200222146501E00F030F856
:1015700000206C6070BD012070BD000010000020D4
:101580001C0000200A4808B5016841F48041016050
:10159000006800F4804000900548001F016841F099
:1015A00080510160006800F08050009008BD00008C
:1015B00044380240002809DB00F01F02012191405D
:1015C0004009800000F1E020C0F8001170470000E1
:1015D000F0B40E4B1B680C46C3F30223C3F107059E
:1015E000042D00D90425191D072901D2002300E08C
:1015F000DB1E012606FA05F1491E214099409E4056
:10160000761E16403143F0BC01F01BBA0CED00E031
:10161000064900F0070208684FF6FF03184040EA49
:101620000220034A10430860704700000CED00E000
:101630000000FA052DE9F0470E46050065D0DFF8F9
:101640001481D8F80000F7B200F00700B04207D2CA
:1016500088F80070D8F8000000F00700B04254D1BC
:1016600028683D4C810712D5400703D5206840F417
:10167000E05020602878000703D5206840F46040DF
:1016800020602068A96820F0F000084320602878D6
:10169000C0072DD0304968680839012812D00228C7
:1016A00013D0032811D00968890700292DDA216891
:1016B00021F0030101432160FFF71CFF814641F245
:1016C000883A0EE009688903EFE709688901ECE7C9
:1016D000FFF710FFA0EB0901514502D90320BDE837
:1016E000F0872068696800F00C00B0EB810FEFD143
:1016F000D8F80010404601F00701B14207D9077041
:10170000006800F00700B04201D00120E7E7287828
:10171000400705D52068E96820F4E05008432060C0
:101720002878000706D52068296920F4604040EA3F
:10173000C100206000F038F82168084AC1F30311A5
:10174000515CC8400649086006480068FFF7FAFE89
:101750000020C4E7003C024008380240882B000803
:101760001C00002014000020044805490068096896
:10177000044AC1F38221515CC84070471C0000201C
:1017800008380240982B0008044805490068096899
:10179000044AC1F34231515CC84070471C0000202C
:1017A00008380240982B0008154810B5006810F062
:1017B0000C02144813D04110042A0FD0082A0ED16D
:1017C0000F4C241F2268236802F03F025B0207D5FA
:1017D0002068C0F38810A0FB010106E0084610BD98
:1017E0002168C1F38811A1FB00010023FEF746FD2B
:1017F0002168C1F30141491C4900B0FBF1F010BD63
:10180000083802400024F4002DE9F84F04006ED09F
:101810002078DFF84C93C007A9F104054AD009F1FC
:1018200004000168C1F38101012908D00068C0F3F8
:10183000810002280AD1D9F80000400206D52868A4
:10184000800337D560680028E1D033E06068B0F5E8
:10185000803F10D0B0F5A02F286810D020F4803041
:101860002860286820F4802028606068A8B1FFF70D
:1018700041FE06460DE0286840F48030F4E740F46D
:1018800080202860F7E700BFFFF734FE801B642844
:1018900073D828688003F7D50CE0FFF72BFE0646C7
:1018A00005E000BFFFF726FE801B6428F0D82868FB
:1018B0008003F7D42078DFF8AC8280074FF0000A6D
:1018C0003ED5A748001D016811F00C0F08D0006834
:1018D000C0F3810002280BD1D9F80000400207D4E0
:1018E0002868800716D5E068012800D112E033E1AE
:1018F000E068B8B10120C8F80000FFF7FBFD06461C
:1019000005E000BFFFF7F6FD801B0228C0D828685D
:101910008007F7D52868216920F0F80040EAC10067
:1019200028600DE0C8F800A0FFF7E4FD064604E0DB
:10193000FFF7E0FD801B02281FD828688007F7D436
:101940002078000722D5864F87486169703771B1CA
:1019500001210160FFF7CEFD064604E0FFF7CAFD56
:10196000801B022809D838688007F7D50EE0C0F838
:1019700000A0FFF7BFFD064605E082E0FFF7BAFDD5
:10198000801B02287DD838688007F7D4207840076C
:1019900068D5DFF8CCB100270BF13C0BDBF8000079
:1019A000C0000BD4DBF8001041F08051CBF80010E0
:1019B000DBF80000012700F0805000906B4E30688B
:1019C000C00510D4306840F480703060FFF792FD9D
:1019D000009005E0FFF78EFD0099401A022850D8CC
:1019E0003068C005F6D55E4EA0686C3601280FD071
:1019F0000528306810D020F001003060306820F0F9
:101A000004003060A068B8B1FFF774FD00900FE0EB
:101A1000306840F00100F4E740F004003060F7E780
:101A2000FFF768FD0099411A41F28830814266D87B
:101A300030688007F4D50EE0FFF75CFD009007E00A
:101A4000FFF758FD0099411A41F28830814256D87B
:101A500030688007F4D42FB1DBF8001021F08051FA
:101A6000CBF80010A069C8B33D49091D0968C1F34E
:101A7000810102294AD00228504607D0C8F86000E8
:101A800000E03CE0FFF736FD04463BE04746C8F87F
:101A90006000FFF72FFD064605E000BFFFF72AFDB7
:101AA000801B02282BD828688001F7D4D4E90701CD
:101AB0000843A16A2E4A490802EB0141626A41EAE1
:101AC0008211084394F82C1040EA0161C9F8001013
:101AD00001203866FFF70EFD044606E03EE000BF39
:101AE000FFF708FD001B022809D828688001F7D5F8
:101AF00034E000BFFFF7FEFC001B022802D90320E0
:101B0000BDE8F88F28688001F4D427E00128F7D0D9
:101B1000D9F80000E26900F4800191421CD1226AE8
:101B200000F03F01914217D147F6C071626A01404F
:101B3000B1EB821F10D1A26A4FF0FF3300F44031A5
:101B400003EB5202B1EB024F06D194F82C1000F0D7
:101B50007060B0EB016F01D00120D1E70020CFE72A
:101B60000438024000004742800E474200700040A7
:101B70000000FFFF10B5401EB0F1807F01D30120AF
:101B800010BD4FF0E02460610F21601700F059FF95
:101B90000020A06107202061002010BD70B590F8E2
:101BA0003C20012A32D0012480F83C40022280F8F7
:101BB0003D2003685A689D6822F070060A68324327
:101BC0005A60134B02689A4214D0B2F1804F11D080
:101BD000104B9A420ED0104B9A420BD00F4B9A42A8
:101BE00008D00F4B9A4205D00E4B9A4202D00E4BB2
:101BF0009A4204D1496825F080031943916080F826
:101C00003D40002180F83C10084670BD022070BDA8
:101C1000000001400004004000080040000C0040AB
:101C200000040140004001400018004010B50400CD
:101C300003D094F83D0010B107E0012010BD002052
:101C400084F83C00204600F01FF8022084F83D0094
:101C5000211D206800F05CFC012084F8460084F817
:101C60003E0084F83F0084F8400084F8410084F886
:101C7000420084F8430084F8440084F8450084F866
:101C80003D00002010BD000008B50068B0F1804F95
:101C900008D10548016841F001010160006800F0C9
:101CA0000100009008BD00004038024090F83D104F
:101CB000012901D001207047022180F83D10006801
:101CC0001149884214D0B0F1804F11D00F49884299
:101CD0000ED00F4988420BD00E49884208D00E49D9
:101CE000884205D00D49884202D00D49884204D16E
:101CF000816801F00701062903D0016841F0010164
:101D00000160002070470000000001400004004016
:101D100000080040000C0040000401400040014069
:101D20000018004001680A6A41F211131A4207D1F3
:101D30000A6A9B101A4203D10A6822F001020A6063
:101D4000012180F83D100020704770B5044690F8DE
:101D50003C000025012817D0012684F83C600220B1
:101D600084F83D002068826822F0770222F47F42E6
:101D700082600868502838D00DDC20284FD005DC60
:101D800090B3102811D14AE0022070BD302846D00F
:101D900040280AD13BE060282FD070280DD0B0F544
:101DA000805F03D0B0F5005F12D0012584F83D605C
:101DB000002084F83C00284670BDCB68D1E90121A1
:101DC000206800F00DFC2068816841F0770109E08F
:101DD000CB68D1E90121206800F002FC206881680D
:101DE00041F480418160E1E719E0CA6849682068F0
:101DF00000F008FC5021206806E0CA6849682068A5
:101E000000F011FC6021206800F0F4FBCEE7CA6806
:101E10004968206800F0F6FB40212068F4E722685A
:101E200001461046F0E718B5034690F84200202816
:101E300001D0022018BD61B15AB101201863002001
:101E40005863184600F0A2FD0028F3D1196B012950
:101E500001D0012018BD19680A6849680091196805
:101E60000C3151E8002F42F0100241E80024002C10
:101E7000F5D118BD10B500680C4A904215D10A463C
:101E80000B494FF0FF33A1F1480000F0E8F940F6AC
:101E9000B83421460648FEF73CFD22460449BDE819
:101EA0001040A1F19000FFF7BEBF10BD00440040FC
:101EB0004001002070470000F8B50168044608683A
:101EC000CA684B6910F00F0F4FF0000559D003F0AE
:101ED000010602F49077374365D0C10705D0D105DC
:101EE00003D5616C41F001016164410705D5D90753
:101EF00003D0616C41F002016164810705D5D90707
:101F000003D0616C41F004016164010707D502F060
:101F10002001314303D0616C41F008016164616CC0
:101F200000293AD0800604D5900602D5204600F05C
:101F300045FC20684069616CC0F38010090700D43B
:101F400060B3204600F013FC20684069400621D5AC
:101F50002068143050E8001F21F0400140E80012D2
:101F6000002AF5D1E06BA8B172490165E06BFEF77C
:101F7000E0FF002811D0E06B016D01B0BDE8F0403A
:101F8000084783060FD593060DD52046BDE8F840D7
:101F900000F014BC2046FFF78DFFF8BD2046FFF788
:101FA00089FF6564F8BD266B2023012E7ED1C6060D
:101FB0007CD5D6067AD508684868009048694FF005
:101FC000020640064DD5E26B106840684FF48077FA
:101FD0000004000C3AD0A18D814237D9E085D06948
:101FE000B8422DD020680C3050E8001F21F48071D9
:101FF00040E80012002AF5D12068143050E8001F94
:1020000021F0010140E80012002AF5D120681430C7
:1020100050E8001F21F0400140E80012002AF5D1ED
:1020200084F84230256320680C3050E8001F21F00E
:10203000100140E80012002AF5D1E06BFEF730FFF6
:102040006663A08DE18D401A81B206E0A18D8142C8
:10205000A8D1D069B842A5D166632046FFF70AFF30
:10206000F8BDA08DE18D401A81B2E08D0028F7D037
:102070000029F5D020680C3050E8002F22F490722F
:1020800040E80027002FF5D12068143050E8002FD9
:1020900022F0010240E80027002FF5D184F84230F9
:1020A000256320680C3050E8002F00E006E022F0A5
:1020B000100240E80023002BF3D1CDE705062BD515
:1020C000150629D594F841002128C9D1A068B0F59A
:1020D000805F01D12069B0B1206A411C2162216872
:1020E00000784860E08C401E0004000CE084B7D10A
:1020F0002068C16821F08001C1602068C16841F09A
:102100004001C160F8BD206A0088C0F30800486043
:10211000206A801C2062E5E74006F3D55006F1D521
:10212000CA68204622F04002CA6084F8413000F0BC
:10213000E6F8F8BD6127000870B5040004D094F8F3
:102140004100002510B106E0012070BD84F8405028
:10215000204600F023F8242084F841002068C1685C
:1021600021F40051C160204600F08AFB206801691B
:1021700021F4904101612068416921F02A01416107
:102180002068C16841F40051C1606564202084F872
:10219000410084F842006563002070BDF0B587B04F
:1021A000044614216846FEF7E8F92848264F2668B9
:1021B000002226491038022303240725BE4223D1DA
:1021C0000E6846F400360E60096801F4003105918E
:1021D000016841F001010160006802AE00F00100F9
:1021E00005900C20CDE9000386E8340069461848C4
:1021F000FFF788F8002211462620FFF7E9F926208C
:10220000FFF7D8F907B0F0BD124FBE42FAD10E6801
:1022100046F480260E60096801F48021059101686A
:1022200041F002010160006802AE00F0020005907A
:102230004FF44060CDE9000386E834006946064863
:10224000FFF760F8DEE7000000440040403802403D
:1022500000000240004800400004024070472DE9A1
:10226000F843044690F84100984616460D4620284B
:1022700002D00220BDE8F88385B17EB10020606401
:10228000212084F84100FFF735F9A6848146E684D1
:10229000A0682027B0F5805F02D003E00120E9E7C5
:1022A000206910B12E4600250EE000260CE08021AA
:1022B000204600F086FBA8B9C6B116F8010B2168CC
:1022C0004860E08C401EE084E08C4B464FF00002FA
:1022D000CDF800800028EAD14FF04001204600F000
:1022E00070FB40B184F841700320C3E735F8020B5E
:1022F000C0F30800E3E784F841700020BAE77047B4
:10230000FEE700007FB50025214800950195029564
:102310001E490395016001244FF440310461C0E976
:102320000115057680F820402107C1620326710659
:10233000C560C0E90961C66180F830404461FEF7BC
:102340007DFC08B172B6FEE7009469461048CDE9FD
:102350000145FEF7BFFB08B172B6FEE70E20009004
:102360000220019069460A48FEF7B4FB08B172B634
:10237000FEE70F20CDE9000669460548FEF7AAFBF7
:10238000002801D072B6FEE77FBD000000200140AA
:102390002000002000B587B014216846FEF7EDF854
:1023A0001A480021026842F080020260026802F0CE
:1023B00080020592026842F001020260026802F0A7
:1023C00001020592026842F004020260026802F013
:1023D00004020592026842F002020260006800F006
:1023E00002000590012000904FF48810CDE9010112
:1023F00069460748FEF786FF002202210620FFF704
:10240000E7F80620FFF7D6F807B000BD30380240E5
:102410000000024010B586B00024174800940194D3
:102420000294039404944FF080410594016041F6B6
:102430003F71C0E9011447F22F51C0E903148461D0
:10244000FFF7F4FB08B172B6FEE74FF4805000903E
:1024500069460948FFF779FC08B172B6FEE720200B
:10246000CDE9040404A90448FFF798FB002801D033
:1024700072B6FEE706B010BD68000020FEE7FEE77A
:1024800070477047FFF73CB830B593B030216846CD
:10249000FEF773F814210CA8FEF76FF81648002415
:1024A000016841F080510160006800F08050119097
:1024B0001248016841F4804101600068012500F480
:1024C0008040119028040694CDE900506846FFF73B
:1024D0009BF908B172B6FEE70F200C90CDE90D54C0
:1024E0000F9400210CA81094FFF7A4F8002801D045
:1024F00072B6FEE713B030BD4038024000700040B5
:102500000248016841F470010160704788ED00E005
:10251000F0B50268274B284D284E294F294C4FF023
:10252000804C984209D0604507D0A84205D0B042FF
:1025300003D0B84201D0A04204D122F0700E4A6804
:1025400042EA0E0298421BD0604519D0A84217D02B
:10255000B04215D0B84213D0A04211D01A4DA842B3
:102560000ED01A4DA8420BD0194DA84208D0194DD3
:10257000A84205D0184DA84202D0184DA84203D158
:1025800022F44075CA682A434D6922F080022A432A
:102590008D68C5620D688562984201D0A04201D164
:1025A00009690163016841F0040101600121416191
:1025B0000260F0BD0000014000040040000800403F
:1025C000000C004000040140004001400044014074
:1025D0000048014000180040001C0040002000405E
:1025E00010B5846842EA032224F47F440A4322435C
:1025F000826010BD826822F070020A4342F0070137
:102600008160704710B5036A046A24F00104046213
:10261000846924F0F00444EA021423F00A020A4315
:102620008461026210BD10B5036A046A24F01004CC
:102630000462846923F0A00324F4704444EA023263
:1026400043EA01118261016210BD00007CB52B4894
:10265000FDF774FF82B24FF0FF3423462749284824
:10266000FFF7FDFD27A13248FDF780FE3048FDF75A
:1026700065FF2F4982B22346A1F64840FFF7EFFDE0
:102680004FF47A752846FEF7D9FD64212848FEF7F5
:1026900040F9284882884188CDE9001203882448FF
:1026A00025A22A496430FDF761FE21486430FDF718
:1026B00045FF024626A11E48FDF758FE1C48FDF7BF
:1026C0003DFF1B4982B22346A1F64840FFF7C7FDF4
:1026D0002846FEF7B3FD16486430FDF72FFF144976
:1026E00082B264312346A1F6AC40FFF7B8FDBDE8E5
:1026F0007C400F4864216430FEF70BB9372B00088B
:10270000F800002041542B43495053544152543D4A
:1027100022544350222C223138342E3130362E317F
:1027200035332E313439222C38300D0A00000000A8
:10273000F80C00200800002046424C304646334446
:10274000594839335059305800000000A02B000878
:1027500041542B43495053454E443D25640D0A00D6
:1027600010B5806B0021C185FFF7A4FB10BD016887
:102770000C3151E8002F22F4907241E80023002B25
:10278000F5D10168143151E8002F22F0010241E82F
:102790000023002BF5D1016B012909D101680C310F
:1027A00051E8002F22F0100241E80023002BF5D160
:1027B000202180F8421000210163704708B590F88D
:1027C0004210222901D0022008BD82684FF48053B4
:1027D0009A4201D1016921B1816A9A421BD04AB162
:1027E0000AE00268816A5268C2F308020A80816ABC
:1027F000891C08E0026972B10268526802F07F0227
:102800000A70816A491C8162C18D491E0904090C44
:10281000C18503D01BE002685268F1E70168CA680D
:1028200022F02002CA600168CA6822F48072CA607D
:1028300001684A6922F001024A61202180F84210B1
:1028400000214163026B012A03D0FFF707FD00203E
:1028500008BD016301680C3151E8002F22F010021D
:1028600041E80023002BF5D101680A68D20602D5A1
:102870000A6849680091818DFFF7FCFAE7E70000DC
:1028800070B5044600680169E26821F440511143C3
:1028900001612169A068E269084361691143084345
:1028A0002168CA6849F20C639A430243CA602068EF
:1028B0004169A26921F440711143416131492068A5
:1028C000884202D03049884202D1FEF75DFF01E024
:1028D000FEF74AFFE2690023192164253226B2F58A
:1028E000004F626828D0A0FB0101930F9200FDF712
:1028F000C5FC0146B0FBF5F06FF01802504301EB48
:10290000800006EB0010B0FBF5F000F0F002B1FB28
:10291000F5F002EB0012B1FBF5F06FF0180358432D
:1029200001EB800006EB0010B0FBF5F000F00F00AB
:1029300021681044886070BDA0FB010192185B41C2
:10294000FDF79CFC0146B0FBF5F00201B1FBF5F090
:102950006FF01803584301EB800006EBC000B0FB9A
:10296000F5F000F0F80002EB4002B1FBF5F058433F
:1029700001EB800006EBC000B0FBF5F000F00700B3
:10298000D6E70000001001400014014081628285FA
:10299000C28500214164222180F84210016921B1E1
:1029A0000168CA6842F48072CA6001684A6942F0EC
:1029B00001024A610068C16841F02001C160002045
:1029C00070472DE9F843984617460D460446089E81
:1029D00024E0701C22D0FEF78DFDA0EB0800B04271
:1029E0001AD8CEB12068C168490717D5802D15D0F7
:1029F000402D13D00168C94309070FD40168002591
:102A0000406800902046FFF7B2FE0820606484F81A
:102A100040500120BDE8F8830320FBE720680068F0
:102A200035EA000004D00020B842D2D00020F1E7FF
:102A30000120F9E70148FFF73FBA0000B00000208D
:102A4000FEE70907090E002804DB00F1E02080F80A
:102A50000014704700F00F0000F1E02080F8141D12
:102A60007047000008B5FEF753FDFFF70DFDFFF7B7
:102A700091FC28480024016841F48001016000684D
:102A8000224600F48000009001213820FEF7A0FDCE
:102A90003820FEF78FFDFFF735FCFFF7BBFC1F4822
:102AA0001D494FF4E1350160C0E901540C26C460B2
:102AB000C0E904468461C461FFF73EFB08B172B609
:102AC000FEE71648164948300160C0E90154C46069
:102AD000C0E904468461C461FFF72EFB08B172B6F9
:102AE000FEE70E4803220F499038FEF72DF90B49F7
:102AF00040F6B83290310948FFF795F9FDF76CFFC1
:102B0000084D083D68680128FCD1FFF79FFD6C6007
:102B1000F8E700003038024000440040B0000020D8
:102B200000480040080000204FF04070E1EE100A1D
:102B3000704741540D0A005354415254494E475F67
:102B40005452414E534D49545F444154415F544F98
:102B50005F5448494E47535045414B0D0A0041547C
:102B60002B5253540D0A0041542B43574D4F4445AB
:102B70003D310D0A0041542B43494653520D0A0082
:102B800000061016000610160000000000000000ED
:102B90000102030406070809000000000102030403
:102BA0004745542068747470733A2F2F6170692EF2
:102BB0007468696E67737065616B2E636F6D2F75D6
:102BC00070646174653F6170695F6B65793D257301
:102BD000266669656C64313D256875266669656C95
:102BE00064323D256875266669656C64333D2568E9
:102BF000750D0A00142C00080000002020000000C1
:102C0000C4010008342C00082000002060140000DB
:102C1000E0010008000000000000000000000000CB
:102C20000000000001000000100000000000000093
:042C30000024F40088
:040000050800018965
:00000001FF
